{"contracts/NameContracts.sol":{"NameContract":{"abi":[{"inputs":[{"internalType":"string","name":"_name","type":"string"}],"stateMutability":"nonpayable","type":"constructor"},{"inputs":[],"name":"getName","outputs":[{"internalType":"string","name":"","type":"string"}],"stateMutability":"view","type":"function"},{"inputs":[{"internalType":"string","name":"_name","type":"string"}],"name":"setName","outputs":[],"stateMutability":"nonpayable","type":"function"}],"evm":{"bytecode":{"linkReferences":{},"object":"60806040523480156200001157600080fd5b5060405162000d9c38038062000d9c833981810160405281019062000037919062000282565b6200006b7fbe5e5125b620025f7240f9a4301b01faf203bbc68b8f5a2c51cd156cd85ed8b560001b620000ec60201b60201c565b6200009f7fca028d11068ddf69db1527dca671d92f1e4811b1c7ab59cb7e6637004f4b356360001b620000ec60201b60201c565b620000d37f6bb9177de9a63d6261c631b372ce9daa1007c35c237361096a9180dc5e9e0c1660001b620000ec60201b60201c565b8060009081620000e491906200051e565b505062000605565b50565b6000604051905090565b600080fd5b600080fd5b600080fd5b600080fd5b6000601f19601f8301169050919050565b7f4e487b7100000000000000000000000000000000000000000000000000000000600052604160045260246000fd5b62000158826200010d565b810181811067ffffffffffffffff821117156200017a57620001796200011e565b5b80604052505050565b60006200018f620000ef565b90506200019d82826200014d565b919050565b600067ffffffffffffffff821115620001c057620001bf6200011e565b5b620001cb826200010d565b9050602081019050919050565b60005b83811015620001f8578082015181840152602081019050620001db565b60008484015250505050565b60006200021b6200021584620001a2565b62000183565b9050828152602081018484840111156200023a576200023962000108565b5b62000247848285620001d8565b509392505050565b600082601f83011262000267576200026662000103565b5b81516200027984826020860162000204565b91505092915050565b6000602082840312156200029b576200029a620000f9565b5b600082015167ffffffffffffffff811115620002bc57620002bb620000fe565b5b620002ca848285016200024f565b91505092915050565b600081519050919050565b7f4e487b7100000000000000000000000000000000000000000000000000000000600052602260045260246000fd5b600060028204905060018216806200032657607f821691505b6020821081036200033c576200033b620002de565b5b50919050565b60008190508160005260206000209050919050565b60006020601f8301049050919050565b600082821b905092915050565b600060088302620003a67fffffffffffffffffffffffffffffffffffffffffffffffffffffffffffffffff8262000367565b620003b2868362000367565b95508019841693508086168417925050509392505050565b6000819050919050565b6000819050919050565b6000620003ff620003f9620003f384620003ca565b620003d4565b620003ca565b9050919050565b6000819050919050565b6200041b83620003de565b620004336200042a8262000406565b84845462000374565b825550505050565b600090565b6200044a6200043b565b6200045781848462000410565b505050565b5b818110156200047f576200047360008262000440565b6001810190506200045d565b5050565b601f821115620004ce57620004988162000342565b620004a38462000357565b81016020851015620004b3578190505b620004cb620004c28562000357565b8301826200045c565b50505b505050565b600082821c905092915050565b6000620004f360001984600802620004d3565b1980831691505092915050565b60006200050e8383620004e0565b9150826002028217905092915050565b6200052982620002d3565b67ffffffffffffffff8111156200054557620005446200011e565b5b6200055182546200030d565b6200055e82828562000483565b600060209050601f83116001811462000596576000841562000581578287015190505b6200058d858262000500565b865550620005fd565b601f198416620005a68662000342565b60005b82811015620005d057848901518255600182019150602085019450602081019050620005a9565b86831015620005f05784890151620005ec601f891682620004e0565b8355505b6001600288020188555050505b505050505050565b61078780620006156000396000f3fe608060405234801561001057600080fd5b50600436106100365760003560e01c806317d7de7c1461003b578063c47f002714610059575b600080fd5b610043610075565b60405161005091906102b5565b60405180910390f35b610073600480360381019061006e9190610420565b61018b565b005b60606100a37f254bcc9ef9f76565489aab1f639fc87eb8c2360024e6538a9c1d22dc869391f960001b610222565b6100cf7f3240986b941daa60cd4fcb24aefcbe6d17c16c7887421003c17ab29fe0b49fd660001b610222565b6100fb7f5394a1c80f27e5e4912efc5071a83ef2efb531bfc9df0ad26638ff95439782c860001b610222565b6000805461010890610498565b80601f016020809104026020016040519081016040528092919081815260200182805461013490610498565b80156101815780601f1061015657610100808354040283529160200191610181565b820191906000526020600020905b81548152906001019060200180831161016457829003601f168201915b5050505050905090565b6101b77fd33863c9519b20b177cbd867b412810430e719e4ce49bdb579eae614b24a6caf60001b610222565b6101e37f8e01b4f1f84368115e15f875ba0067eefd03f7fc06b6aa3abd3883f3c800d36560001b610222565b61020f7f99d9c67c62b411474cc289353413675123a6aefa71d6ee3fa683397589e50eee60001b610222565b806000908161021e919061067f565b5050565b50565b600081519050919050565b600082825260208201905092915050565b60005b8381101561025f578082015181840152602081019050610244565b60008484015250505050565b6000601f19601f8301169050919050565b600061028782610225565b6102918185610230565b93506102a1818560208601610241565b6102aa8161026b565b840191505092915050565b600060208201905081810360008301526102cf818461027c565b905092915050565b6000604051905090565b600080fd5b600080fd5b600080fd5b600080fd5b7f4e487b7100000000000000000000000000000000000000000000000000000000600052604160045260246000fd5b61032d8261026b565b810181811067ffffffffffffffff8211171561034c5761034b6102f5565b5b80604052505050565b600061035f6102d7565b905061036b8282610324565b919050565b600067ffffffffffffffff82111561038b5761038a6102f5565b5b6103948261026b565b9050602081019050919050565b82818337600083830152505050565b60006103c36103be84610370565b610355565b9050828152602081018484840111156103df576103de6102f0565b5b6103ea8482856103a1565b509392505050565b600082601f830112610407576104066102eb565b5b81356104178482602086016103b0565b91505092915050565b600060208284031215610436576104356102e1565b5b600082013567ffffffffffffffff811115610454576104536102e6565b5b610460848285016103f2565b91505092915050565b7f4e487b7100000000000000000000000000000000000000000000000000000000600052602260045260246000fd5b600060028204905060018216806104b057607f821691505b6020821081036104c3576104c2610469565b5b50919050565b60008190508160005260206000209050919050565b60006020601f8301049050919050565b600082821b905092915050565b60006008830261052b7fffffffffffffffffffffffffffffffffffffffffffffffffffffffffffffffff826104ee565b61053586836104ee565b95508019841693508086168417925050509392505050565b6000819050919050565b6000819050919050565b600061057c6105776105728461054d565b610557565b61054d565b9050919050565b6000819050919050565b61059683610561565b6105aa6105a282610583565b8484546104fb565b825550505050565b600090565b6105bf6105b2565b6105ca81848461058d565b505050565b5b818110156105ee576105e36000826105b7565b6001810190506105d0565b5050565b601f82111561063357610604816104c9565b61060d846104de565b8101602085101561061c578190505b610630610628856104de565b8301826105cf565b50505b505050565b600082821c905092915050565b600061065660001984600802610638565b1980831691505092915050565b600061066f8383610645565b9150826002028217905092915050565b61068882610225565b67ffffffffffffffff8111156106a1576106a06102f5565b5b6106ab8254610498565b6106b68282856105f2565b600060209050601f8311600181146106e957600084156106d7578287015190505b6106e18582610663565b865550610749565b601f1984166106f7866104c9565b60005b8281101561071f578489015182556001820191506020850194506020810190506106fa565b8683101561073c5784890151610738601f891682610645565b8355505b6001600288020188555050505b50505050505056fea26469706673582212203f7b4ac38c546225bc9f24c98cb08b6ed49e94733a9b4ef3eb9051f56e55903a64736f6c63430008120033","opcodes":"PUSH1 0x80 PUSH1 0x40 MSTORE CALLVALUE DUP1 ISZERO PUSH3 0x11 JUMPI PUSH1 0x0 DUP1 REVERT JUMPDEST POP PUSH1 0x40 MLOAD PUSH3 0xD9C CODESIZE SUB DUP1 PUSH3 0xD9C DUP4 CODECOPY DUP2 DUP2 ADD PUSH1 0x40 MSTORE DUP2 ADD SWAP1 PUSH3 0x37 SWAP2 SWAP1 PUSH3 0x282 JUMP JUMPDEST PUSH3 0x6B PUSH32 0xBE5E5125B620025F7240F9A4301B01FAF203BBC68B8F5A2C51CD156CD85ED8B5 PUSH1 0x0 SHL PUSH3 0xEC PUSH1 0x20 SHL PUSH1 0x20 SHR JUMP JUMPDEST PUSH3 0x9F PUSH32 0xCA028D11068DDF69DB1527DCA671D92F1E4811B1C7AB59CB7E6637004F4B3563 PUSH1 0x0 SHL PUSH3 0xEC PUSH1 0x20 SHL PUSH1 0x20 SHR JUMP JUMPDEST PUSH3 0xD3 PUSH32 0x6BB9177DE9A63D6261C631B372CE9DAA1007C35C237361096A9180DC5E9E0C16 PUSH1 0x0 SHL PUSH3 0xEC PUSH1 0x20 SHL PUSH1 0x20 SHR JUMP JUMPDEST DUP1 PUSH1 0x0 SWAP1 DUP2 PUSH3 0xE4 SWAP2 SWAP1 PUSH3 0x51E JUMP JUMPDEST POP POP PUSH3 0x605 JUMP JUMPDEST POP JUMP JUMPDEST PUSH1 0x0 PUSH1 0x40 MLOAD SWAP1 POP SWAP1 JUMP JUMPDEST PUSH1 0x0 DUP1 REVERT JUMPDEST PUSH1 0x0 DUP1 REVERT JUMPDEST PUSH1 0x0 DUP1 REVERT JUMPDEST PUSH1 0x0 DUP1 REVERT JUMPDEST PUSH1 0x0 PUSH1 0x1F NOT PUSH1 0x1F DUP4 ADD AND SWAP1 POP SWAP2 SWAP1 POP JUMP JUMPDEST PUSH32 0x4E487B7100000000000000000000000000000000000000000000000000000000 PUSH1 0x0 MSTORE PUSH1 0x41 PUSH1 0x4 MSTORE PUSH1 0x24 PUSH1 0x0 REVERT JUMPDEST PUSH3 0x158 DUP3 PUSH3 0x10D JUMP JUMPDEST DUP2 ADD DUP2 DUP2 LT PUSH8 0xFFFFFFFFFFFFFFFF DUP3 GT OR ISZERO PUSH3 0x17A JUMPI PUSH3 0x179 PUSH3 0x11E JUMP JUMPDEST JUMPDEST DUP1 PUSH1 0x40 MSTORE POP POP POP JUMP JUMPDEST PUSH1 0x0 PUSH3 0x18F PUSH3 0xEF JUMP JUMPDEST SWAP1 POP PUSH3 0x19D DUP3 DUP3 PUSH3 0x14D JUMP JUMPDEST SWAP2 SWAP1 POP JUMP JUMPDEST PUSH1 0x0 PUSH8 0xFFFFFFFFFFFFFFFF DUP3 GT ISZERO PUSH3 0x1C0 JUMPI PUSH3 0x1BF PUSH3 0x11E JUMP JUMPDEST JUMPDEST PUSH3 0x1CB DUP3 PUSH3 0x10D JUMP JUMPDEST SWAP1 POP PUSH1 0x20 DUP2 ADD SWAP1 POP SWAP2 SWAP1 POP JUMP JUMPDEST PUSH1 0x0 JUMPDEST DUP4 DUP2 LT ISZERO PUSH3 0x1F8 JUMPI DUP1 DUP3 ADD MLOAD DUP2 DUP5 ADD MSTORE PUSH1 0x20 DUP2 ADD SWAP1 POP PUSH3 0x1DB JUMP JUMPDEST PUSH1 0x0 DUP5 DUP5 ADD MSTORE POP POP POP POP JUMP JUMPDEST PUSH1 0x0 PUSH3 0x21B PUSH3 0x215 DUP5 PUSH3 0x1A2 JUMP JUMPDEST PUSH3 0x183 JUMP JUMPDEST SWAP1 POP DUP3 DUP2 MSTORE PUSH1 0x20 DUP2 ADD DUP5 DUP5 DUP5 ADD GT ISZERO PUSH3 0x23A JUMPI PUSH3 0x239 PUSH3 0x108 JUMP JUMPDEST JUMPDEST PUSH3 0x247 DUP5 DUP3 DUP6 PUSH3 0x1D8 JUMP JUMPDEST POP SWAP4 SWAP3 POP POP POP JUMP JUMPDEST PUSH1 0x0 DUP3 PUSH1 0x1F DUP4 ADD SLT PUSH3 0x267 JUMPI PUSH3 0x266 PUSH3 0x103 JUMP JUMPDEST JUMPDEST DUP2 MLOAD PUSH3 0x279 DUP5 DUP3 PUSH1 0x20 DUP7 ADD PUSH3 0x204 JUMP JUMPDEST SWAP2 POP POP SWAP3 SWAP2 POP POP JUMP JUMPDEST PUSH1 0x0 PUSH1 0x20 DUP3 DUP5 SUB SLT ISZERO PUSH3 0x29B JUMPI PUSH3 0x29A PUSH3 0xF9 JUMP JUMPDEST JUMPDEST PUSH1 0x0 DUP3 ADD MLOAD PUSH8 0xFFFFFFFFFFFFFFFF DUP2 GT ISZERO PUSH3 0x2BC JUMPI PUSH3 0x2BB PUSH3 0xFE JUMP JUMPDEST JUMPDEST PUSH3 0x2CA DUP5 DUP3 DUP6 ADD PUSH3 0x24F JUMP JUMPDEST SWAP2 POP POP SWAP3 SWAP2 POP POP JUMP JUMPDEST PUSH1 0x0 DUP2 MLOAD SWAP1 POP SWAP2 SWAP1 POP JUMP JUMPDEST PUSH32 0x4E487B7100000000000000000000000000000000000000000000000000000000 PUSH1 0x0 MSTORE PUSH1 0x22 PUSH1 0x4 MSTORE PUSH1 0x24 PUSH1 0x0 REVERT JUMPDEST PUSH1 0x0 PUSH1 0x2 DUP3 DIV SWAP1 POP PUSH1 0x1 DUP3 AND DUP1 PUSH3 0x326 JUMPI PUSH1 0x7F DUP3 AND SWAP2 POP JUMPDEST PUSH1 0x20 DUP3 LT DUP2 SUB PUSH3 0x33C JUMPI PUSH3 0x33B PUSH3 0x2DE JUMP JUMPDEST JUMPDEST POP SWAP2 SWAP1 POP JUMP JUMPDEST PUSH1 0x0 DUP2 SWAP1 POP DUP2 PUSH1 0x0 MSTORE PUSH1 0x20 PUSH1 0x0 KECCAK256 SWAP1 POP SWAP2 SWAP1 POP JUMP JUMPDEST PUSH1 0x0 PUSH1 0x20 PUSH1 0x1F DUP4 ADD DIV SWAP1 POP SWAP2 SWAP1 POP JUMP JUMPDEST PUSH1 0x0 DUP3 DUP3 SHL SWAP1 POP SWAP3 SWAP2 POP POP JUMP JUMPDEST PUSH1 0x0 PUSH1 0x8 DUP4 MUL PUSH3 0x3A6 PUSH32 0xFFFFFFFFFFFFFFFFFFFFFFFFFFFFFFFFFFFFFFFFFFFFFFFFFFFFFFFFFFFFFFFF DUP3 PUSH3 0x367 JUMP JUMPDEST PUSH3 0x3B2 DUP7 DUP4 PUSH3 0x367 JUMP JUMPDEST SWAP6 POP DUP1 NOT DUP5 AND SWAP4 POP DUP1 DUP7 AND DUP5 OR SWAP3 POP POP POP SWAP4 SWAP3 POP POP POP JUMP JUMPDEST PUSH1 0x0 DUP2 SWAP1 POP SWAP2 SWAP1 POP JUMP JUMPDEST PUSH1 0x0 DUP2 SWAP1 POP SWAP2 SWAP1 POP JUMP JUMPDEST PUSH1 0x0 PUSH3 0x3FF PUSH3 0x3F9 PUSH3 0x3F3 DUP5 PUSH3 0x3CA JUMP JUMPDEST PUSH3 0x3D4 JUMP JUMPDEST PUSH3 0x3CA JUMP JUMPDEST SWAP1 POP SWAP2 SWAP1 POP JUMP JUMPDEST PUSH1 0x0 DUP2 SWAP1 POP SWAP2 SWAP1 POP JUMP JUMPDEST PUSH3 0x41B DUP4 PUSH3 0x3DE JUMP JUMPDEST PUSH3 0x433 PUSH3 0x42A DUP3 PUSH3 0x406 JUMP JUMPDEST DUP5 DUP5 SLOAD PUSH3 0x374 JUMP JUMPDEST DUP3 SSTORE POP POP POP POP JUMP JUMPDEST PUSH1 0x0 SWAP1 JUMP JUMPDEST PUSH3 0x44A PUSH3 0x43B JUMP JUMPDEST PUSH3 0x457 DUP2 DUP5 DUP5 PUSH3 0x410 JUMP JUMPDEST POP POP POP JUMP JUMPDEST JUMPDEST DUP2 DUP2 LT ISZERO PUSH3 0x47F JUMPI PUSH3 0x473 PUSH1 0x0 DUP3 PUSH3 0x440 JUMP JUMPDEST PUSH1 0x1 DUP2 ADD SWAP1 POP PUSH3 0x45D JUMP JUMPDEST POP POP JUMP JUMPDEST PUSH1 0x1F DUP3 GT ISZERO PUSH3 0x4CE JUMPI PUSH3 0x498 DUP2 PUSH3 0x342 JUMP JUMPDEST PUSH3 0x4A3 DUP5 PUSH3 0x357 JUMP JUMPDEST DUP2 ADD PUSH1 0x20 DUP6 LT ISZERO PUSH3 0x4B3 JUMPI DUP2 SWAP1 POP JUMPDEST PUSH3 0x4CB PUSH3 0x4C2 DUP6 PUSH3 0x357 JUMP JUMPDEST DUP4 ADD DUP3 PUSH3 0x45C JUMP JUMPDEST POP POP JUMPDEST POP POP POP JUMP JUMPDEST PUSH1 0x0 DUP3 DUP3 SHR SWAP1 POP SWAP3 SWAP2 POP POP JUMP JUMPDEST PUSH1 0x0 PUSH3 0x4F3 PUSH1 0x0 NOT DUP5 PUSH1 0x8 MUL PUSH3 0x4D3 JUMP JUMPDEST NOT DUP1 DUP4 AND SWAP2 POP POP SWAP3 SWAP2 POP POP JUMP JUMPDEST PUSH1 0x0 PUSH3 0x50E DUP4 DUP4 PUSH3 0x4E0 JUMP JUMPDEST SWAP2 POP DUP3 PUSH1 0x2 MUL DUP3 OR SWAP1 POP SWAP3 SWAP2 POP POP JUMP JUMPDEST PUSH3 0x529 DUP3 PUSH3 0x2D3 JUMP JUMPDEST PUSH8 0xFFFFFFFFFFFFFFFF DUP2 GT ISZERO PUSH3 0x545 JUMPI PUSH3 0x544 PUSH3 0x11E JUMP JUMPDEST JUMPDEST PUSH3 0x551 DUP3 SLOAD PUSH3 0x30D JUMP JUMPDEST PUSH3 0x55E DUP3 DUP3 DUP6 PUSH3 0x483 JUMP JUMPDEST PUSH1 0x0 PUSH1 0x20 SWAP1 POP PUSH1 0x1F DUP4 GT PUSH1 0x1 DUP2 EQ PUSH3 0x596 JUMPI PUSH1 0x0 DUP5 ISZERO PUSH3 0x581 JUMPI DUP3 DUP8 ADD MLOAD SWAP1 POP JUMPDEST PUSH3 0x58D DUP6 DUP3 PUSH3 0x500 JUMP JUMPDEST DUP7 SSTORE POP PUSH3 0x5FD JUMP JUMPDEST PUSH1 0x1F NOT DUP5 AND PUSH3 0x5A6 DUP7 PUSH3 0x342 JUMP JUMPDEST PUSH1 0x0 JUMPDEST DUP3 DUP2 LT ISZERO PUSH3 0x5D0 JUMPI DUP5 DUP10 ADD MLOAD DUP3 SSTORE PUSH1 0x1 DUP3 ADD SWAP2 POP PUSH1 0x20 DUP6 ADD SWAP5 POP PUSH1 0x20 DUP2 ADD SWAP1 POP PUSH3 0x5A9 JUMP JUMPDEST DUP7 DUP4 LT ISZERO PUSH3 0x5F0 JUMPI DUP5 DUP10 ADD MLOAD PUSH3 0x5EC PUSH1 0x1F DUP10 AND DUP3 PUSH3 0x4E0 JUMP JUMPDEST DUP4 SSTORE POP JUMPDEST PUSH1 0x1 PUSH1 0x2 DUP9 MUL ADD DUP9 SSTORE POP POP POP JUMPDEST POP POP POP POP POP POP JUMP JUMPDEST PUSH2 0x787 DUP1 PUSH3 0x615 PUSH1 0x0 CODECOPY PUSH1 0x0 RETURN INVALID PUSH1 0x80 PUSH1 0x40 MSTORE CALLVALUE DUP1 ISZERO PUSH2 0x10 JUMPI PUSH1 0x0 DUP1 REVERT JUMPDEST POP PUSH1 0x4 CALLDATASIZE LT PUSH2 0x36 JUMPI PUSH1 0x0 CALLDATALOAD PUSH1 0xE0 SHR DUP1 PUSH4 0x17D7DE7C EQ PUSH2 0x3B JUMPI DUP1 PUSH4 0xC47F0027 EQ PUSH2 0x59 JUMPI JUMPDEST PUSH1 0x0 DUP1 REVERT JUMPDEST PUSH2 0x43 PUSH2 0x75 JUMP JUMPDEST PUSH1 0x40 MLOAD PUSH2 0x50 SWAP2 SWAP1 PUSH2 0x2B5 JUMP JUMPDEST PUSH1 0x40 MLOAD DUP1 SWAP2 SUB SWAP1 RETURN JUMPDEST PUSH2 0x73 PUSH1 0x4 DUP1 CALLDATASIZE SUB DUP2 ADD SWAP1 PUSH2 0x6E SWAP2 SWAP1 PUSH2 0x420 JUMP JUMPDEST PUSH2 0x18B JUMP JUMPDEST STOP JUMPDEST PUSH1 0x60 PUSH2 0xA3 PUSH32 0x254BCC9EF9F76565489AAB1F639FC87EB8C2360024E6538A9C1D22DC869391F9 PUSH1 0x0 SHL PUSH2 0x222 JUMP JUMPDEST PUSH2 0xCF PUSH32 0x3240986B941DAA60CD4FCB24AEFCBE6D17C16C7887421003C17AB29FE0B49FD6 PUSH1 0x0 SHL PUSH2 0x222 JUMP JUMPDEST PUSH2 0xFB PUSH32 0x5394A1C80F27E5E4912EFC5071A83EF2EFB531BFC9DF0AD26638FF95439782C8 PUSH1 0x0 SHL PUSH2 0x222 JUMP JUMPDEST PUSH1 0x0 DUP1 SLOAD PUSH2 0x108 SWAP1 PUSH2 0x498 JUMP JUMPDEST DUP1 PUSH1 0x1F ADD PUSH1 0x20 DUP1 SWAP2 DIV MUL PUSH1 0x20 ADD PUSH1 0x40 MLOAD SWAP1 DUP2 ADD PUSH1 0x40 MSTORE DUP1 SWAP3 SWAP2 SWAP1 DUP2 DUP2 MSTORE PUSH1 0x20 ADD DUP3 DUP1 SLOAD PUSH2 0x134 SWAP1 PUSH2 0x498 JUMP JUMPDEST DUP1 ISZERO PUSH2 0x181 JUMPI DUP1 PUSH1 0x1F LT PUSH2 0x156 JUMPI PUSH2 0x100 DUP1 DUP4 SLOAD DIV MUL DUP4 MSTORE SWAP2 PUSH1 0x20 ADD SWAP2 PUSH2 0x181 JUMP JUMPDEST DUP3 ADD SWAP2 SWAP1 PUSH1 0x0 MSTORE PUSH1 0x20 PUSH1 0x0 KECCAK256 SWAP1 JUMPDEST DUP2 SLOAD DUP2 MSTORE SWAP1 PUSH1 0x1 ADD SWAP1 PUSH1 0x20 ADD DUP1 DUP4 GT PUSH2 0x164 JUMPI DUP3 SWAP1 SUB PUSH1 0x1F AND DUP3 ADD SWAP2 JUMPDEST POP POP POP POP POP SWAP1 POP SWAP1 JUMP JUMPDEST PUSH2 0x1B7 PUSH32 0xD33863C9519B20B177CBD867B412810430E719E4CE49BDB579EAE614B24A6CAF PUSH1 0x0 SHL PUSH2 0x222 JUMP JUMPDEST PUSH2 0x1E3 PUSH32 0x8E01B4F1F84368115E15F875BA0067EEFD03F7FC06B6AA3ABD3883F3C800D365 PUSH1 0x0 SHL PUSH2 0x222 JUMP JUMPDEST PUSH2 0x20F PUSH32 0x99D9C67C62B411474CC289353413675123A6AEFA71D6EE3FA683397589E50EEE PUSH1 0x0 SHL PUSH2 0x222 JUMP JUMPDEST DUP1 PUSH1 0x0 SWAP1 DUP2 PUSH2 0x21E SWAP2 SWAP1 PUSH2 0x67F JUMP JUMPDEST POP POP JUMP JUMPDEST POP JUMP JUMPDEST PUSH1 0x0 DUP2 MLOAD SWAP1 POP SWAP2 SWAP1 POP JUMP JUMPDEST PUSH1 0x0 DUP3 DUP3 MSTORE PUSH1 0x20 DUP3 ADD SWAP1 POP SWAP3 SWAP2 POP POP JUMP JUMPDEST PUSH1 0x0 JUMPDEST DUP4 DUP2 LT ISZERO PUSH2 0x25F JUMPI DUP1 DUP3 ADD MLOAD DUP2 DUP5 ADD MSTORE PUSH1 0x20 DUP2 ADD SWAP1 POP PUSH2 0x244 JUMP JUMPDEST PUSH1 0x0 DUP5 DUP5 ADD MSTORE POP POP POP POP JUMP JUMPDEST PUSH1 0x0 PUSH1 0x1F NOT PUSH1 0x1F DUP4 ADD AND SWAP1 POP SWAP2 SWAP1 POP JUMP JUMPDEST PUSH1 0x0 PUSH2 0x287 DUP3 PUSH2 0x225 JUMP JUMPDEST PUSH2 0x291 DUP2 DUP6 PUSH2 0x230 JUMP JUMPDEST SWAP4 POP PUSH2 0x2A1 DUP2 DUP6 PUSH1 0x20 DUP7 ADD PUSH2 0x241 JUMP JUMPDEST PUSH2 0x2AA DUP2 PUSH2 0x26B JUMP JUMPDEST DUP5 ADD SWAP2 POP POP SWAP3 SWAP2 POP POP JUMP JUMPDEST PUSH1 0x0 PUSH1 0x20 DUP3 ADD SWAP1 POP DUP2 DUP2 SUB PUSH1 0x0 DUP4 ADD MSTORE PUSH2 0x2CF DUP2 DUP5 PUSH2 0x27C JUMP JUMPDEST SWAP1 POP SWAP3 SWAP2 POP POP JUMP JUMPDEST PUSH1 0x0 PUSH1 0x40 MLOAD SWAP1 POP SWAP1 JUMP JUMPDEST PUSH1 0x0 DUP1 REVERT JUMPDEST PUSH1 0x0 DUP1 REVERT JUMPDEST PUSH1 0x0 DUP1 REVERT JUMPDEST PUSH1 0x0 DUP1 REVERT JUMPDEST PUSH32 0x4E487B7100000000000000000000000000000000000000000000000000000000 PUSH1 0x0 MSTORE PUSH1 0x41 PUSH1 0x4 MSTORE PUSH1 0x24 PUSH1 0x0 REVERT JUMPDEST PUSH2 0x32D DUP3 PUSH2 0x26B JUMP JUMPDEST DUP2 ADD DUP2 DUP2 LT PUSH8 0xFFFFFFFFFFFFFFFF DUP3 GT OR ISZERO PUSH2 0x34C JUMPI PUSH2 0x34B PUSH2 0x2F5 JUMP JUMPDEST JUMPDEST DUP1 PUSH1 0x40 MSTORE POP POP POP JUMP JUMPDEST PUSH1 0x0 PUSH2 0x35F PUSH2 0x2D7 JUMP JUMPDEST SWAP1 POP PUSH2 0x36B DUP3 DUP3 PUSH2 0x324 JUMP JUMPDEST SWAP2 SWAP1 POP JUMP JUMPDEST PUSH1 0x0 PUSH8 0xFFFFFFFFFFFFFFFF DUP3 GT ISZERO PUSH2 0x38B JUMPI PUSH2 0x38A PUSH2 0x2F5 JUMP JUMPDEST JUMPDEST PUSH2 0x394 DUP3 PUSH2 0x26B JUMP JUMPDEST SWAP1 POP PUSH1 0x20 DUP2 ADD SWAP1 POP SWAP2 SWAP1 POP JUMP JUMPDEST DUP3 DUP2 DUP4 CALLDATACOPY PUSH1 0x0 DUP4 DUP4 ADD MSTORE POP POP POP JUMP JUMPDEST PUSH1 0x0 PUSH2 0x3C3 PUSH2 0x3BE DUP5 PUSH2 0x370 JUMP JUMPDEST PUSH2 0x355 JUMP JUMPDEST SWAP1 POP DUP3 DUP2 MSTORE PUSH1 0x20 DUP2 ADD DUP5 DUP5 DUP5 ADD GT ISZERO PUSH2 0x3DF JUMPI PUSH2 0x3DE PUSH2 0x2F0 JUMP JUMPDEST JUMPDEST PUSH2 0x3EA DUP5 DUP3 DUP6 PUSH2 0x3A1 JUMP JUMPDEST POP SWAP4 SWAP3 POP POP POP JUMP JUMPDEST PUSH1 0x0 DUP3 PUSH1 0x1F DUP4 ADD SLT PUSH2 0x407 JUMPI PUSH2 0x406 PUSH2 0x2EB JUMP JUMPDEST JUMPDEST DUP2 CALLDATALOAD PUSH2 0x417 DUP5 DUP3 PUSH1 0x20 DUP7 ADD PUSH2 0x3B0 JUMP JUMPDEST SWAP2 POP POP SWAP3 SWAP2 POP POP JUMP JUMPDEST PUSH1 0x0 PUSH1 0x20 DUP3 DUP5 SUB SLT ISZERO PUSH2 0x436 JUMPI PUSH2 0x435 PUSH2 0x2E1 JUMP JUMPDEST JUMPDEST PUSH1 0x0 DUP3 ADD CALLDATALOAD PUSH8 0xFFFFFFFFFFFFFFFF DUP2 GT ISZERO PUSH2 0x454 JUMPI PUSH2 0x453 PUSH2 0x2E6 JUMP JUMPDEST JUMPDEST PUSH2 0x460 DUP5 DUP3 DUP6 ADD PUSH2 0x3F2 JUMP JUMPDEST SWAP2 POP POP SWAP3 SWAP2 POP POP JUMP JUMPDEST PUSH32 0x4E487B7100000000000000000000000000000000000000000000000000000000 PUSH1 0x0 MSTORE PUSH1 0x22 PUSH1 0x4 MSTORE PUSH1 0x24 PUSH1 0x0 REVERT JUMPDEST PUSH1 0x0 PUSH1 0x2 DUP3 DIV SWAP1 POP PUSH1 0x1 DUP3 AND DUP1 PUSH2 0x4B0 JUMPI PUSH1 0x7F DUP3 AND SWAP2 POP JUMPDEST PUSH1 0x20 DUP3 LT DUP2 SUB PUSH2 0x4C3 JUMPI PUSH2 0x4C2 PUSH2 0x469 JUMP JUMPDEST JUMPDEST POP SWAP2 SWAP1 POP JUMP JUMPDEST PUSH1 0x0 DUP2 SWAP1 POP DUP2 PUSH1 0x0 MSTORE PUSH1 0x20 PUSH1 0x0 KECCAK256 SWAP1 POP SWAP2 SWAP1 POP JUMP JUMPDEST PUSH1 0x0 PUSH1 0x20 PUSH1 0x1F DUP4 ADD DIV SWAP1 POP SWAP2 SWAP1 POP JUMP JUMPDEST PUSH1 0x0 DUP3 DUP3 SHL SWAP1 POP SWAP3 SWAP2 POP POP JUMP JUMPDEST PUSH1 0x0 PUSH1 0x8 DUP4 MUL PUSH2 0x52B PUSH32 0xFFFFFFFFFFFFFFFFFFFFFFFFFFFFFFFFFFFFFFFFFFFFFFFFFFFFFFFFFFFFFFFF DUP3 PUSH2 0x4EE JUMP JUMPDEST PUSH2 0x535 DUP7 DUP4 PUSH2 0x4EE JUMP JUMPDEST SWAP6 POP DUP1 NOT DUP5 AND SWAP4 POP DUP1 DUP7 AND DUP5 OR SWAP3 POP POP POP SWAP4 SWAP3 POP POP POP JUMP JUMPDEST PUSH1 0x0 DUP2 SWAP1 POP SWAP2 SWAP1 POP JUMP JUMPDEST PUSH1 0x0 DUP2 SWAP1 POP SWAP2 SWAP1 POP JUMP JUMPDEST PUSH1 0x0 PUSH2 0x57C PUSH2 0x577 PUSH2 0x572 DUP5 PUSH2 0x54D JUMP JUMPDEST PUSH2 0x557 JUMP JUMPDEST PUSH2 0x54D JUMP JUMPDEST SWAP1 POP SWAP2 SWAP1 POP JUMP JUMPDEST PUSH1 0x0 DUP2 SWAP1 POP SWAP2 SWAP1 POP JUMP JUMPDEST PUSH2 0x596 DUP4 PUSH2 0x561 JUMP JUMPDEST PUSH2 0x5AA PUSH2 0x5A2 DUP3 PUSH2 0x583 JUMP JUMPDEST DUP5 DUP5 SLOAD PUSH2 0x4FB JUMP JUMPDEST DUP3 SSTORE POP POP POP POP JUMP JUMPDEST PUSH1 0x0 SWAP1 JUMP JUMPDEST PUSH2 0x5BF PUSH2 0x5B2 JUMP JUMPDEST PUSH2 0x5CA DUP2 DUP5 DUP5 PUSH2 0x58D JUMP JUMPDEST POP POP POP JUMP JUMPDEST JUMPDEST DUP2 DUP2 LT ISZERO PUSH2 0x5EE JUMPI PUSH2 0x5E3 PUSH1 0x0 DUP3 PUSH2 0x5B7 JUMP JUMPDEST PUSH1 0x1 DUP2 ADD SWAP1 POP PUSH2 0x5D0 JUMP JUMPDEST POP POP JUMP JUMPDEST PUSH1 0x1F DUP3 GT ISZERO PUSH2 0x633 JUMPI PUSH2 0x604 DUP2 PUSH2 0x4C9 JUMP JUMPDEST PUSH2 0x60D DUP5 PUSH2 0x4DE JUMP JUMPDEST DUP2 ADD PUSH1 0x20 DUP6 LT ISZERO PUSH2 0x61C JUMPI DUP2 SWAP1 POP JUMPDEST PUSH2 0x630 PUSH2 0x628 DUP6 PUSH2 0x4DE JUMP JUMPDEST DUP4 ADD DUP3 PUSH2 0x5CF JUMP JUMPDEST POP POP JUMPDEST POP POP POP JUMP JUMPDEST PUSH1 0x0 DUP3 DUP3 SHR SWAP1 POP SWAP3 SWAP2 POP POP JUMP JUMPDEST PUSH1 0x0 PUSH2 0x656 PUSH1 0x0 NOT DUP5 PUSH1 0x8 MUL PUSH2 0x638 JUMP JUMPDEST NOT DUP1 DUP4 AND SWAP2 POP POP SWAP3 SWAP2 POP POP JUMP JUMPDEST PUSH1 0x0 PUSH2 0x66F DUP4 DUP4 PUSH2 0x645 JUMP JUMPDEST SWAP2 POP DUP3 PUSH1 0x2 MUL DUP3 OR SWAP1 POP SWAP3 SWAP2 POP POP JUMP JUMPDEST PUSH2 0x688 DUP3 PUSH2 0x225 JUMP JUMPDEST PUSH8 0xFFFFFFFFFFFFFFFF DUP2 GT ISZERO PUSH2 0x6A1 JUMPI PUSH2 0x6A0 PUSH2 0x2F5 JUMP JUMPDEST JUMPDEST PUSH2 0x6AB DUP3 SLOAD PUSH2 0x498 JUMP JUMPDEST PUSH2 0x6B6 DUP3 DUP3 DUP6 PUSH2 0x5F2 JUMP JUMPDEST PUSH1 0x0 PUSH1 0x20 SWAP1 POP PUSH1 0x1F DUP4 GT PUSH1 0x1 DUP2 EQ PUSH2 0x6E9 JUMPI PUSH1 0x0 DUP5 ISZERO PUSH2 0x6D7 JUMPI DUP3 DUP8 ADD MLOAD SWAP1 POP JUMPDEST PUSH2 0x6E1 DUP6 DUP3 PUSH2 0x663 JUMP JUMPDEST DUP7 SSTORE POP PUSH2 0x749 JUMP JUMPDEST PUSH1 0x1F NOT DUP5 AND PUSH2 0x6F7 DUP7 PUSH2 0x4C9 JUMP JUMPDEST PUSH1 0x0 JUMPDEST DUP3 DUP2 LT ISZERO PUSH2 0x71F JUMPI DUP5 DUP10 ADD MLOAD DUP3 SSTORE PUSH1 0x1 DUP3 ADD SWAP2 POP PUSH1 0x20 DUP6 ADD SWAP5 POP PUSH1 0x20 DUP2 ADD SWAP1 POP PUSH2 0x6FA JUMP JUMPDEST DUP7 DUP4 LT ISZERO PUSH2 0x73C JUMPI DUP5 DUP10 ADD MLOAD PUSH2 0x738 PUSH1 0x1F DUP10 AND DUP3 PUSH2 0x645 JUMP JUMPDEST DUP4 SSTORE POP JUMPDEST PUSH1 0x1 PUSH1 0x2 DUP9 MUL ADD DUP9 SSTORE POP POP POP JUMPDEST POP POP POP POP POP POP JUMP INVALID LOG2 PUSH5 0x6970667358 0x22 SLT KECCAK256 EXTCODEHASH PUSH28 0x4AC38C546225BC9F24C98CB08B6ED49E94733A9B4EF3EB9051F56E55 SWAP1 GASPRICE PUSH5 0x736F6C6343 STOP ADDMOD SLT STOP CALLER "},"methodIdentifiers":{"getName()":"17d7de7c","setName(string)":"c47f0027"}}}}}