{"contracts/DoubleDeposit.sol":{"DoubleDeposit":{"abi":[{"inputs":[],"stateMutability":"nonpayable","type":"constructor"},{"anonymous":false,"inputs":[{"indexed":true,"internalType":"address","name":"depositor","type":"address"},{"indexed":false,"internalType":"uint256","name":"amount","type":"uint256"}],"name":"Deposit","type":"event"},{"anonymous":false,"inputs":[{"indexed":true,"internalType":"address","name":"withdrawer","type":"address"},{"indexed":false,"internalType":"uint256","name":"amount","type":"uint256"}],"name":"Withdrawal","type":"event"},{"inputs":[],"name":"deposit","outputs":[],"stateMutability":"payable","type":"function"},{"inputs":[{"internalType":"address","name":"depositor","type":"address"}],"name":"getDepositAmount","outputs":[{"internalType":"uint256","name":"","type":"uint256"}],"stateMutability":"view","type":"function"},{"inputs":[],"name":"withdraw","outputs":[],"stateMutability":"nonpayable","type":"function"}],"evm":{"bytecode":{"linkReferences":{},"object":"608060405234801561001057600080fd5b506100437f98a66067190269869b353628f9af9d04b657fa302e6ee4d9dc7b63615a00e54360001b61004860201b60201c565b61004b565b50565b610c7e8061005a6000396000f3fe6080604052600436106100345760003560e01c80633ccfd60b14610039578063b8ba16fd14610050578063d0e30db01461008d575b600080fd5b34801561004557600080fd5b5061004e610097565b005b34801561005c57600080fd5b506100776004803603810190610072919061095b565b6105b5565b60405161008491906109a1565b60405180910390f35b610095610681565b005b6100c37f2b922fdf9dbc042b6e33c06619af35f7ad93f1a977c18d07c47123e4e5dc715d60001b6108f5565b6100ef7f18fef760b065c542ed00953f832e0189ef6ef3c5c043083fe9eac47c32cf5bcf60001b6108f5565b61011b7f9caeaf54fc97ab46625240a8fd66dc09c93432186af88a7356028fe8ab98b2b960001b6108f5565b60008060003373ffffffffffffffffffffffffffffffffffffffff1673ffffffffffffffffffffffffffffffffffffffff16815260200190815260200160002054905061018a7f770d43b6450f6b2198830ee885e345b82409d348fc27a93f2a082d6bc1aa2aad60001b6108f5565b6101b67f80dced61b6016162679d304fffbfdfe429f55d151e8a5d5135106b9a8033df2a60001b6108f5565b6101e27fe39fdb13cff11097225969d385f9c90fd1651d8eebb36649c4ae163688066eea60001b6108f5565b60008111610225576040517f08c379a000000000000000000000000000000000000000000000000000000000815260040161021c90610a19565b60405180910390fd5b6102517fd85efd9fbca48e2a5da9e7e9c3f7189295758300cdf2604c768c91d357cea9bc60001b6108f5565b61027d7f7bd0079125daef9ed8a66f3f98aed199b76e0309bbdce4af0e5e19412edcc05660001b6108f5565b6102a97f0346fc910aa441de7f128c52a1bd194c14ec6f552d823e5b90f242bad9ab738760001b6108f5565b60008060003373ffffffffffffffffffffffffffffffffffffffff1673ffffffffffffffffffffffffffffffffffffffff168152602001908152602001600020819055506103197f5a5c82b63f0695bbfb73e7e012f04362adf5668371fa3b04015037f80f75bdee60001b6108f5565b6103457faeb483e715c0dd84aa2411dd26df798b6814643d7592964b39d99e1e51c83f7e60001b6108f5565b60006002826103549190610a68565b90506103827f6e579e59fbea57691660c602bbd8760b282522cd8d80a9dc4cb0da4d4d00158360001b6108f5565b6103ae7f9c9841c9b54e857da5c047ea0ee2d20b4772d6ca6960aba73962e21bea40dd5560001b6108f5565b60003373ffffffffffffffffffffffffffffffffffffffff16826040516103d490610adb565b60006040518083038185875af1925050503d8060008114610411576040519150601f19603f3d011682016040523d82523d6000602084013e610416565b606091505b505090506104467f39f25274729e98a62bf1bbb832780c8872b731a8b9cb427842c8909cd6d71e0560001b6108f5565b6104727f30f8866ed65788c1d49785f995644725d8558051390eb2f1654b8cb0be0ab72f60001b6108f5565b61049e7f4b0463983d4d1d351cfe3dad4a0d388b13fe4c0ac559067c0a7d59372e0c99a660001b6108f5565b806104de576040517f08c379a00000000000000000000000000000000000000000000000000000000081526004016104d590610b62565b60405180910390fd5b61050a7f5e6f199c381f4a729b85d99478d2da3c24ad5582a776bc1882086b6ffe7dea0460001b6108f5565b6105367fbc68f25bcd97df991224a9dd237df9d7df977d3144165383ed89b4ddba10afef60001b6108f5565b6105627f827b00ed70f681cb5269af4f89bb0c5c558e570cdb62ceecfa91160b97993f6460001b6108f5565b3373ffffffffffffffffffffffffffffffffffffffff167f7fcf532c15f0a6db0bd6d0e038bea71d30d808c7d98cb3bf7268a95bf5081b65836040516105a891906109a1565b60405180910390a2505050565b60006105e37fe3a4eb63bd8e5c21eb4cb9b777278f2ede673226b3eeff40b846918b66e2613b60001b6108f5565b61060f7f0ca241bdfcf2b824beb208a0edb6047984bf7ec18be710ae1c7de9d0f62d3adb60001b6108f5565b61063b7fb98f302a5e7f5ea5924bafcc67095db292c671d685a8d58293bfe1fa7718a8de60001b6108f5565b6000808373ffffffffffffffffffffffffffffffffffffffff1673ffffffffffffffffffffffffffffffffffffffff168152602001908152602001600020549050919050565b6106ad7f7cbb3f422148b2849662d255604ce45c448b706d82fe7888b8398e907207d2d760001b6108f5565b6106d97f7c4b9171f8ecfae527f360c437f9ea995f80efca6704a1c4a5aa8d1114fcd50860001b6108f5565b6107057f40c88c4fd92c142e37516382eadaa380c5b7696687ab4b916ff088937584346060001b6108f5565b6107317f0751f3009cd3f773afd10c447264b360eb40052a0d6359cc689dd5630ea3552b60001b6108f5565b60003411610774576040517f08c379a000000000000000000000000000000000000000000000000000000000815260040161076b90610bf4565b60405180910390fd5b6107a07fa108505ebd0c37b66a9068574b1fb75e9ae7d07b89b214fbad197c5b9371c29960001b6108f5565b6107cc7f1293efae3b2ffa088ebe4f88674d65a8684bb6f8bc77220f3f7934c793c4a23060001b6108f5565b6107f87f9301e61ed3a564b26405f8a7c6e49b610c2df29d71cda8aaec5434ea86ae8dc660001b6108f5565b346000803373ffffffffffffffffffffffffffffffffffffffff1673ffffffffffffffffffffffffffffffffffffffff16815260200190815260200160002060008282546108469190610c14565b925050819055506108797f4eb3f01c1b673ded079e7a08a67be6769c01708c2a33a1a58f1bd24e045d90ba60001b6108f5565b6108a57f0a5eab4d93c519f3c9ef0fbbe430c1106a97e6835c39143026e83a7a4e3f75df60001b6108f5565b3373ffffffffffffffffffffffffffffffffffffffff167fe1fffcc4923d04b559f4d29a8bfc6cda04eb5b0d3c460751c2402c5c5cc9109c346040516108eb91906109a1565b60405180910390a2565b50565b600080fd5b600073ffffffffffffffffffffffffffffffffffffffff82169050919050565b6000610928826108fd565b9050919050565b6109388161091d565b811461094357600080fd5b50565b6000813590506109558161092f565b92915050565b600060208284031215610971576109706108f8565b5b600061097f84828501610946565b91505092915050565b6000819050919050565b61099b81610988565b82525050565b60006020820190506109b66000830184610992565b92915050565b600082825260208201905092915050565b7f4e6f206465706f73697420617661696c61626c6520746f207769746864726177600082015250565b6000610a036020836109bc565b9150610a0e826109cd565b602082019050919050565b60006020820190508181036000830152610a32816109f6565b9050919050565b7f4e487b7100000000000000000000000000000000000000000000000000000000600052601160045260246000fd5b6000610a7382610988565b9150610a7e83610988565b9250828202610a8c81610988565b91508282048414831517610aa357610aa2610a39565b5b5092915050565b600081905092915050565b50565b6000610ac5600083610aaa565b9150610ad082610ab5565b600082019050919050565b6000610ae682610ab8565b9150819050919050565b7f4661696c656420746f2073656e642045544820746f207468652077697468647260008201527f6177657200000000000000000000000000000000000000000000000000000000602082015250565b6000610b4c6024836109bc565b9150610b5782610af0565b604082019050919050565b60006020820190508181036000830152610b7b81610b3f565b9050919050565b7f4465706f73697420616d6f756e74206d7573742062652067726561746572207460008201527f68616e207a65726f000000000000000000000000000000000000000000000000602082015250565b6000610bde6028836109bc565b9150610be982610b82565b604082019050919050565b60006020820190508181036000830152610c0d81610bd1565b9050919050565b6000610c1f82610988565b9150610c2a83610988565b9250828201905080821115610c4257610c41610a39565b5b9291505056fea2646970667358221220b3f2d118e3d123147ee2b0348631273fbbeb4b4719d4e70fa8964457625ad99764736f6c63430008120033","opcodes":"PUSH1 0x80 PUSH1 0x40 MSTORE CALLVALUE DUP1 ISZERO PUSH2 0x10 JUMPI PUSH1 0x0 DUP1 REVERT JUMPDEST POP PUSH2 0x43 PUSH32 0x98A66067190269869B353628F9AF9D04B657FA302E6EE4D9DC7B63615A00E543 PUSH1 0x0 SHL PUSH2 0x48 PUSH1 0x20 SHL PUSH1 0x20 SHR JUMP JUMPDEST PUSH2 0x4B JUMP JUMPDEST POP JUMP JUMPDEST PUSH2 0xC7E DUP1 PUSH2 0x5A PUSH1 0x0 CODECOPY PUSH1 0x0 RETURN INVALID PUSH1 0x80 PUSH1 0x40 MSTORE PUSH1 0x4 CALLDATASIZE LT PUSH2 0x34 JUMPI PUSH1 0x0 CALLDATALOAD PUSH1 0xE0 SHR DUP1 PUSH4 0x3CCFD60B EQ PUSH2 0x39 JUMPI DUP1 PUSH4 0xB8BA16FD EQ PUSH2 0x50 JUMPI DUP1 PUSH4 0xD0E30DB0 EQ PUSH2 0x8D JUMPI JUMPDEST PUSH1 0x0 DUP1 REVERT JUMPDEST CALLVALUE DUP1 ISZERO PUSH2 0x45 JUMPI PUSH1 0x0 DUP1 REVERT JUMPDEST POP PUSH2 0x4E PUSH2 0x97 JUMP JUMPDEST STOP JUMPDEST CALLVALUE DUP1 ISZERO PUSH2 0x5C JUMPI PUSH1 0x0 DUP1 REVERT JUMPDEST POP PUSH2 0x77 PUSH1 0x4 DUP1 CALLDATASIZE SUB DUP2 ADD SWAP1 PUSH2 0x72 SWAP2 SWAP1 PUSH2 0x95B JUMP JUMPDEST PUSH2 0x5B5 JUMP JUMPDEST PUSH1 0x40 MLOAD PUSH2 0x84 SWAP2 SWAP1 PUSH2 0x9A1 JUMP JUMPDEST PUSH1 0x40 MLOAD DUP1 SWAP2 SUB SWAP1 RETURN JUMPDEST PUSH2 0x95 PUSH2 0x681 JUMP JUMPDEST STOP JUMPDEST PUSH2 0xC3 PUSH32 0x2B922FDF9DBC042B6E33C06619AF35F7AD93F1A977C18D07C47123E4E5DC715D PUSH1 0x0 SHL PUSH2 0x8F5 JUMP JUMPDEST PUSH2 0xEF PUSH32 0x18FEF760B065C542ED00953F832E0189EF6EF3C5C043083FE9EAC47C32CF5BCF PUSH1 0x0 SHL PUSH2 0x8F5 JUMP JUMPDEST PUSH2 0x11B PUSH32 0x9CAEAF54FC97AB46625240A8FD66DC09C93432186AF88A7356028FE8AB98B2B9 PUSH1 0x0 SHL PUSH2 0x8F5 JUMP JUMPDEST PUSH1 0x0 DUP1 PUSH1 0x0 CALLER PUSH20 0xFFFFFFFFFFFFFFFFFFFFFFFFFFFFFFFFFFFFFFFF AND PUSH20 0xFFFFFFFFFFFFFFFFFFFFFFFFFFFFFFFFFFFFFFFF AND DUP2 MSTORE PUSH1 0x20 ADD SWAP1 DUP2 MSTORE PUSH1 0x20 ADD PUSH1 0x0 KECCAK256 SLOAD SWAP1 POP PUSH2 0x18A PUSH32 0x770D43B6450F6B2198830EE885E345B82409D348FC27A93F2A082D6BC1AA2AAD PUSH1 0x0 SHL PUSH2 0x8F5 JUMP JUMPDEST PUSH2 0x1B6 PUSH32 0x80DCED61B6016162679D304FFFBFDFE429F55D151E8A5D5135106B9A8033DF2A PUSH1 0x0 SHL PUSH2 0x8F5 JUMP JUMPDEST PUSH2 0x1E2 PUSH32 0xE39FDB13CFF11097225969D385F9C90FD1651D8EEBB36649C4AE163688066EEA PUSH1 0x0 SHL PUSH2 0x8F5 JUMP JUMPDEST PUSH1 0x0 DUP2 GT PUSH2 0x225 JUMPI PUSH1 0x40 MLOAD PUSH32 0x8C379A000000000000000000000000000000000000000000000000000000000 DUP2 MSTORE PUSH1 0x4 ADD PUSH2 0x21C SWAP1 PUSH2 0xA19 JUMP JUMPDEST PUSH1 0x40 MLOAD DUP1 SWAP2 SUB SWAP1 REVERT JUMPDEST PUSH2 0x251 PUSH32 0xD85EFD9FBCA48E2A5DA9E7E9C3F7189295758300CDF2604C768C91D357CEA9BC PUSH1 0x0 SHL PUSH2 0x8F5 JUMP JUMPDEST PUSH2 0x27D PUSH32 0x7BD0079125DAEF9ED8A66F3F98AED199B76E0309BBDCE4AF0E5E19412EDCC056 PUSH1 0x0 SHL PUSH2 0x8F5 JUMP JUMPDEST PUSH2 0x2A9 PUSH32 0x346FC910AA441DE7F128C52A1BD194C14EC6F552D823E5B90F242BAD9AB7387 PUSH1 0x0 SHL PUSH2 0x8F5 JUMP JUMPDEST PUSH1 0x0 DUP1 PUSH1 0x0 CALLER PUSH20 0xFFFFFFFFFFFFFFFFFFFFFFFFFFFFFFFFFFFFFFFF AND PUSH20 0xFFFFFFFFFFFFFFFFFFFFFFFFFFFFFFFFFFFFFFFF AND DUP2 MSTORE PUSH1 0x20 ADD SWAP1 DUP2 MSTORE PUSH1 0x20 ADD PUSH1 0x0 KECCAK256 DUP2 SWAP1 SSTORE POP PUSH2 0x319 PUSH32 0x5A5C82B63F0695BBFB73E7E012F04362ADF5668371FA3B04015037F80F75BDEE PUSH1 0x0 SHL PUSH2 0x8F5 JUMP JUMPDEST PUSH2 0x345 PUSH32 0xAEB483E715C0DD84AA2411DD26DF798B6814643D7592964B39D99E1E51C83F7E PUSH1 0x0 SHL PUSH2 0x8F5 JUMP JUMPDEST PUSH1 0x0 PUSH1 0x2 DUP3 PUSH2 0x354 SWAP2 SWAP1 PUSH2 0xA68 JUMP JUMPDEST SWAP1 POP PUSH2 0x382 PUSH32 0x6E579E59FBEA57691660C602BBD8760B282522CD8D80A9DC4CB0DA4D4D001583 PUSH1 0x0 SHL PUSH2 0x8F5 JUMP JUMPDEST PUSH2 0x3AE PUSH32 0x9C9841C9B54E857DA5C047EA0EE2D20B4772D6CA6960ABA73962E21BEA40DD55 PUSH1 0x0 SHL PUSH2 0x8F5 JUMP JUMPDEST PUSH1 0x0 CALLER PUSH20 0xFFFFFFFFFFFFFFFFFFFFFFFFFFFFFFFFFFFFFFFF AND DUP3 PUSH1 0x40 MLOAD PUSH2 0x3D4 SWAP1 PUSH2 0xADB JUMP JUMPDEST PUSH1 0x0 PUSH1 0x40 MLOAD DUP1 DUP4 SUB DUP2 DUP6 DUP8 GAS CALL SWAP3 POP POP POP RETURNDATASIZE DUP1 PUSH1 0x0 DUP2 EQ PUSH2 0x411 JUMPI PUSH1 0x40 MLOAD SWAP2 POP PUSH1 0x1F NOT PUSH1 0x3F RETURNDATASIZE ADD AND DUP3 ADD PUSH1 0x40 MSTORE RETURNDATASIZE DUP3 MSTORE RETURNDATASIZE PUSH1 0x0 PUSH1 0x20 DUP5 ADD RETURNDATACOPY PUSH2 0x416 JUMP JUMPDEST PUSH1 0x60 SWAP2 POP JUMPDEST POP POP SWAP1 POP PUSH2 0x446 PUSH32 0x39F25274729E98A62BF1BBB832780C8872B731A8B9CB427842C8909CD6D71E05 PUSH1 0x0 SHL PUSH2 0x8F5 JUMP JUMPDEST PUSH2 0x472 PUSH32 0x30F8866ED65788C1D49785F995644725D8558051390EB2F1654B8CB0BE0AB72F PUSH1 0x0 SHL PUSH2 0x8F5 JUMP JUMPDEST PUSH2 0x49E PUSH32 0x4B0463983D4D1D351CFE3DAD4A0D388B13FE4C0AC559067C0A7D59372E0C99A6 PUSH1 0x0 SHL PUSH2 0x8F5 JUMP JUMPDEST DUP1 PUSH2 0x4DE JUMPI PUSH1 0x40 MLOAD PUSH32 0x8C379A000000000000000000000000000000000000000000000000000000000 DUP2 MSTORE PUSH1 0x4 ADD PUSH2 0x4D5 SWAP1 PUSH2 0xB62 JUMP JUMPDEST PUSH1 0x40 MLOAD DUP1 SWAP2 SUB SWAP1 REVERT JUMPDEST PUSH2 0x50A PUSH32 0x5E6F199C381F4A729B85D99478D2DA3C24AD5582A776BC1882086B6FFE7DEA04 PUSH1 0x0 SHL PUSH2 0x8F5 JUMP JUMPDEST PUSH2 0x536 PUSH32 0xBC68F25BCD97DF991224A9DD237DF9D7DF977D3144165383ED89B4DDBA10AFEF PUSH1 0x0 SHL PUSH2 0x8F5 JUMP JUMPDEST PUSH2 0x562 PUSH32 0x827B00ED70F681CB5269AF4F89BB0C5C558E570CDB62CEECFA91160B97993F64 PUSH1 0x0 SHL PUSH2 0x8F5 JUMP JUMPDEST CALLER PUSH20 0xFFFFFFFFFFFFFFFFFFFFFFFFFFFFFFFFFFFFFFFF AND PUSH32 0x7FCF532C15F0A6DB0BD6D0E038BEA71D30D808C7D98CB3BF7268A95BF5081B65 DUP4 PUSH1 0x40 MLOAD PUSH2 0x5A8 SWAP2 SWAP1 PUSH2 0x9A1 JUMP JUMPDEST PUSH1 0x40 MLOAD DUP1 SWAP2 SUB SWAP1 LOG2 POP POP POP JUMP JUMPDEST PUSH1 0x0 PUSH2 0x5E3 PUSH32 0xE3A4EB63BD8E5C21EB4CB9B777278F2EDE673226B3EEFF40B846918B66E2613B PUSH1 0x0 SHL PUSH2 0x8F5 JUMP JUMPDEST PUSH2 0x60F PUSH32 0xCA241BDFCF2B824BEB208A0EDB6047984BF7EC18BE710AE1C7DE9D0F62D3ADB PUSH1 0x0 SHL PUSH2 0x8F5 JUMP JUMPDEST PUSH2 0x63B PUSH32 0xB98F302A5E7F5EA5924BAFCC67095DB292C671D685A8D58293BFE1FA7718A8DE PUSH1 0x0 SHL PUSH2 0x8F5 JUMP JUMPDEST PUSH1 0x0 DUP1 DUP4 PUSH20 0xFFFFFFFFFFFFFFFFFFFFFFFFFFFFFFFFFFFFFFFF AND PUSH20 0xFFFFFFFFFFFFFFFFFFFFFFFFFFFFFFFFFFFFFFFF AND DUP2 MSTORE PUSH1 0x20 ADD SWAP1 DUP2 MSTORE PUSH1 0x20 ADD PUSH1 0x0 KECCAK256 SLOAD SWAP1 POP SWAP2 SWAP1 POP JUMP JUMPDEST PUSH2 0x6AD PUSH32 0x7CBB3F422148B2849662D255604CE45C448B706D82FE7888B8398E907207D2D7 PUSH1 0x0 SHL PUSH2 0x8F5 JUMP JUMPDEST PUSH2 0x6D9 PUSH32 0x7C4B9171F8ECFAE527F360C437F9EA995F80EFCA6704A1C4A5AA8D1114FCD508 PUSH1 0x0 SHL PUSH2 0x8F5 JUMP JUMPDEST PUSH2 0x705 PUSH32 0x40C88C4FD92C142E37516382EADAA380C5B7696687AB4B916FF0889375843460 PUSH1 0x0 SHL PUSH2 0x8F5 JUMP JUMPDEST PUSH2 0x731 PUSH32 0x751F3009CD3F773AFD10C447264B360EB40052A0D6359CC689DD5630EA3552B PUSH1 0x0 SHL PUSH2 0x8F5 JUMP JUMPDEST PUSH1 0x0 CALLVALUE GT PUSH2 0x774 JUMPI PUSH1 0x40 MLOAD PUSH32 0x8C379A000000000000000000000000000000000000000000000000000000000 DUP2 MSTORE PUSH1 0x4 ADD PUSH2 0x76B SWAP1 PUSH2 0xBF4 JUMP JUMPDEST PUSH1 0x40 MLOAD DUP1 SWAP2 SUB SWAP1 REVERT JUMPDEST PUSH2 0x7A0 PUSH32 0xA108505EBD0C37B66A9068574B1FB75E9AE7D07B89B214FBAD197C5B9371C299 PUSH1 0x0 SHL PUSH2 0x8F5 JUMP JUMPDEST PUSH2 0x7CC PUSH32 0x1293EFAE3B2FFA088EBE4F88674D65A8684BB6F8BC77220F3F7934C793C4A230 PUSH1 0x0 SHL PUSH2 0x8F5 JUMP JUMPDEST PUSH2 0x7F8 PUSH32 0x9301E61ED3A564B26405F8A7C6E49B610C2DF29D71CDA8AAEC5434EA86AE8DC6 PUSH1 0x0 SHL PUSH2 0x8F5 JUMP JUMPDEST CALLVALUE PUSH1 0x0 DUP1 CALLER PUSH20 0xFFFFFFFFFFFFFFFFFFFFFFFFFFFFFFFFFFFFFFFF AND PUSH20 0xFFFFFFFFFFFFFFFFFFFFFFFFFFFFFFFFFFFFFFFF AND DUP2 MSTORE PUSH1 0x20 ADD SWAP1 DUP2 MSTORE PUSH1 0x20 ADD PUSH1 0x0 KECCAK256 PUSH1 0x0 DUP3 DUP3 SLOAD PUSH2 0x846 SWAP2 SWAP1 PUSH2 0xC14 JUMP JUMPDEST SWAP3 POP POP DUP2 SWAP1 SSTORE POP PUSH2 0x879 PUSH32 0x4EB3F01C1B673DED079E7A08A67BE6769C01708C2A33A1A58F1BD24E045D90BA PUSH1 0x0 SHL PUSH2 0x8F5 JUMP JUMPDEST PUSH2 0x8A5 PUSH32 0xA5EAB4D93C519F3C9EF0FBBE430C1106A97E6835C39143026E83A7A4E3F75DF PUSH1 0x0 SHL PUSH2 0x8F5 JUMP JUMPDEST CALLER PUSH20 0xFFFFFFFFFFFFFFFFFFFFFFFFFFFFFFFFFFFFFFFF AND PUSH32 0xE1FFFCC4923D04B559F4D29A8BFC6CDA04EB5B0D3C460751C2402C5C5CC9109C CALLVALUE PUSH1 0x40 MLOAD PUSH2 0x8EB SWAP2 SWAP1 PUSH2 0x9A1 JUMP JUMPDEST PUSH1 0x40 MLOAD DUP1 SWAP2 SUB SWAP1 LOG2 JUMP JUMPDEST POP JUMP JUMPDEST PUSH1 0x0 DUP1 REVERT JUMPDEST PUSH1 0x0 PUSH20 0xFFFFFFFFFFFFFFFFFFFFFFFFFFFFFFFFFFFFFFFF DUP3 AND SWAP1 POP SWAP2 SWAP1 POP JUMP JUMPDEST PUSH1 0x0 PUSH2 0x928 DUP3 PUSH2 0x8FD JUMP JUMPDEST SWAP1 POP SWAP2 SWAP1 POP JUMP JUMPDEST PUSH2 0x938 DUP2 PUSH2 0x91D JUMP JUMPDEST DUP2 EQ PUSH2 0x943 JUMPI PUSH1 0x0 DUP1 REVERT JUMPDEST POP JUMP JUMPDEST PUSH1 0x0 DUP2 CALLDATALOAD SWAP1 POP PUSH2 0x955 DUP2 PUSH2 0x92F JUMP JUMPDEST SWAP3 SWAP2 POP POP JUMP JUMPDEST PUSH1 0x0 PUSH1 0x20 DUP3 DUP5 SUB SLT ISZERO PUSH2 0x971 JUMPI PUSH2 0x970 PUSH2 0x8F8 JUMP JUMPDEST JUMPDEST PUSH1 0x0 PUSH2 0x97F DUP5 DUP3 DUP6 ADD PUSH2 0x946 JUMP JUMPDEST SWAP2 POP POP SWAP3 SWAP2 POP POP JUMP JUMPDEST PUSH1 0x0 DUP2 SWAP1 POP SWAP2 SWAP1 POP JUMP JUMPDEST PUSH2 0x99B DUP2 PUSH2 0x988 JUMP JUMPDEST DUP3 MSTORE POP POP JUMP JUMPDEST PUSH1 0x0 PUSH1 0x20 DUP3 ADD SWAP1 POP PUSH2 0x9B6 PUSH1 0x0 DUP4 ADD DUP5 PUSH2 0x992 JUMP JUMPDEST SWAP3 SWAP2 POP POP JUMP JUMPDEST PUSH1 0x0 DUP3 DUP3 MSTORE PUSH1 0x20 DUP3 ADD SWAP1 POP SWAP3 SWAP2 POP POP JUMP JUMPDEST PUSH32 0x4E6F206465706F73697420617661696C61626C6520746F207769746864726177 PUSH1 0x0 DUP3 ADD MSTORE POP JUMP JUMPDEST PUSH1 0x0 PUSH2 0xA03 PUSH1 0x20 DUP4 PUSH2 0x9BC JUMP JUMPDEST SWAP2 POP PUSH2 0xA0E DUP3 PUSH2 0x9CD JUMP JUMPDEST PUSH1 0x20 DUP3 ADD SWAP1 POP SWAP2 SWAP1 POP JUMP JUMPDEST PUSH1 0x0 PUSH1 0x20 DUP3 ADD SWAP1 POP DUP2 DUP2 SUB PUSH1 0x0 DUP4 ADD MSTORE PUSH2 0xA32 DUP2 PUSH2 0x9F6 JUMP JUMPDEST SWAP1 POP SWAP2 SWAP1 POP JUMP JUMPDEST PUSH32 0x4E487B7100000000000000000000000000000000000000000000000000000000 PUSH1 0x0 MSTORE PUSH1 0x11 PUSH1 0x4 MSTORE PUSH1 0x24 PUSH1 0x0 REVERT JUMPDEST PUSH1 0x0 PUSH2 0xA73 DUP3 PUSH2 0x988 JUMP JUMPDEST SWAP2 POP PUSH2 0xA7E DUP4 PUSH2 0x988 JUMP JUMPDEST SWAP3 POP DUP3 DUP3 MUL PUSH2 0xA8C DUP2 PUSH2 0x988 JUMP JUMPDEST SWAP2 POP DUP3 DUP3 DIV DUP5 EQ DUP4 ISZERO OR PUSH2 0xAA3 JUMPI PUSH2 0xAA2 PUSH2 0xA39 JUMP JUMPDEST JUMPDEST POP SWAP3 SWAP2 POP POP JUMP JUMPDEST PUSH1 0x0 DUP2 SWAP1 POP SWAP3 SWAP2 POP POP JUMP JUMPDEST POP JUMP JUMPDEST PUSH1 0x0 PUSH2 0xAC5 PUSH1 0x0 DUP4 PUSH2 0xAAA JUMP JUMPDEST SWAP2 POP PUSH2 0xAD0 DUP3 PUSH2 0xAB5 JUMP JUMPDEST PUSH1 0x0 DUP3 ADD SWAP1 POP SWAP2 SWAP1 POP JUMP JUMPDEST PUSH1 0x0 PUSH2 0xAE6 DUP3 PUSH2 0xAB8 JUMP JUMPDEST SWAP2 POP DUP2 SWAP1 POP SWAP2 SWAP1 POP JUMP JUMPDEST PUSH32 0x4661696C656420746F2073656E642045544820746F2074686520776974686472 PUSH1 0x0 DUP3 ADD MSTORE PUSH32 0x6177657200000000000000000000000000000000000000000000000000000000 PUSH1 0x20 DUP3 ADD MSTORE POP JUMP JUMPDEST PUSH1 0x0 PUSH2 0xB4C PUSH1 0x24 DUP4 PUSH2 0x9BC JUMP JUMPDEST SWAP2 POP PUSH2 0xB57 DUP3 PUSH2 0xAF0 JUMP JUMPDEST PUSH1 0x40 DUP3 ADD SWAP1 POP SWAP2 SWAP1 POP JUMP JUMPDEST PUSH1 0x0 PUSH1 0x20 DUP3 ADD SWAP1 POP DUP2 DUP2 SUB PUSH1 0x0 DUP4 ADD MSTORE PUSH2 0xB7B DUP2 PUSH2 0xB3F JUMP JUMPDEST SWAP1 POP SWAP2 SWAP1 POP JUMP JUMPDEST PUSH32 0x4465706F73697420616D6F756E74206D75737420626520677265617465722074 PUSH1 0x0 DUP3 ADD MSTORE PUSH32 0x68616E207A65726F000000000000000000000000000000000000000000000000 PUSH1 0x20 DUP3 ADD MSTORE POP JUMP JUMPDEST PUSH1 0x0 PUSH2 0xBDE PUSH1 0x28 DUP4 PUSH2 0x9BC JUMP JUMPDEST SWAP2 POP PUSH2 0xBE9 DUP3 PUSH2 0xB82 JUMP JUMPDEST PUSH1 0x40 DUP3 ADD SWAP1 POP SWAP2 SWAP1 POP JUMP JUMPDEST PUSH1 0x0 PUSH1 0x20 DUP3 ADD SWAP1 POP DUP2 DUP2 SUB PUSH1 0x0 DUP4 ADD MSTORE PUSH2 0xC0D DUP2 PUSH2 0xBD1 JUMP JUMPDEST SWAP1 POP SWAP2 SWAP1 POP JUMP JUMPDEST PUSH1 0x0 PUSH2 0xC1F DUP3 PUSH2 0x988 JUMP JUMPDEST SWAP2 POP PUSH2 0xC2A DUP4 PUSH2 0x988 JUMP JUMPDEST SWAP3 POP DUP3 DUP3 ADD SWAP1 POP DUP1 DUP3 GT ISZERO PUSH2 0xC42 JUMPI PUSH2 0xC41 PUSH2 0xA39 JUMP JUMPDEST JUMPDEST SWAP3 SWAP2 POP POP JUMP INVALID LOG2 PUSH5 0x6970667358 0x22 SLT KECCAK256 0xB3 CALLCODE 0xD1 XOR 0xE3 0xD1 0x23 EQ PUSH31 0xE2B0348631273FBBEB4B4719D4E70FA8964457625AD99764736F6C63430008 SLT STOP CALLER "},"methodIdentifiers":{"deposit()":"d0e30db0","getDepositAmount(address)":"b8ba16fd","withdraw()":"3ccfd60b"}}}}}