{
  "_format": "hh-sol-artifact-1",
  "contractName": "DoubleDeposit",
  "sourceName": "contracts/DoubleDeposit.sol",
  "abi": [
    {
      "inputs": [],
      "stateMutability": "nonpayable",
      "type": "constructor"
    },
    {
      "anonymous": false,
      "inputs": [
        {
          "indexed": true,
          "internalType": "address",
          "name": "depositor",
          "type": "address"
        },
        {
          "indexed": false,
          "internalType": "uint256",
          "name": "amount",
          "type": "uint256"
        }
      ],
      "name": "Deposit",
      "type": "event"
    },
    {
      "anonymous": false,
      "inputs": [
        {
          "indexed": true,
          "internalType": "address",
          "name": "withdrawer",
          "type": "address"
        },
        {
          "indexed": false,
          "internalType": "uint256",
          "name": "amount",
          "type": "uint256"
        }
      ],
      "name": "Withdrawal",
      "type": "event"
    },
    {
      "inputs": [],
      "name": "deposit",
      "outputs": [],
      "stateMutability": "payable",
      "type": "function"
    },
    {
      "inputs": [
        {
          "internalType": "address",
          "name": "depositor",
          "type": "address"
        }
      ],
      "name": "getDepositAmount",
      "outputs": [
        {
          "internalType": "uint256",
          "name": "",
          "type": "uint256"
        }
      ],
      "stateMutability": "view",
      "type": "function"
    },
    {
      "inputs": [],
      "name": "withdraw",
      "outputs": [],
      "stateMutability": "nonpayable",
      "type": "function"
    }
  ],
  "bytecode": "0x608060405234801561001057600080fd5b506100437f98a66067190269869b353628f9af9d04b657fa302e6ee4d9dc7b63615a00e54360001b61004860201b60201c565b61004b565b50565b610c7e8061005a6000396000f3fe6080604052600436106100345760003560e01c80633ccfd60b14610039578063b8ba16fd14610050578063d0e30db01461008d575b600080fd5b34801561004557600080fd5b5061004e610097565b005b34801561005c57600080fd5b506100776004803603810190610072919061095b565b6105b5565b60405161008491906109a1565b60405180910390f35b610095610681565b005b6100c37f2b922fdf9dbc042b6e33c06619af35f7ad93f1a977c18d07c47123e4e5dc715d60001b6108f5565b6100ef7f18fef760b065c542ed00953f832e0189ef6ef3c5c043083fe9eac47c32cf5bcf60001b6108f5565b61011b7f9caeaf54fc97ab46625240a8fd66dc09c93432186af88a7356028fe8ab98b2b960001b6108f5565b60008060003373ffffffffffffffffffffffffffffffffffffffff1673ffffffffffffffffffffffffffffffffffffffff16815260200190815260200160002054905061018a7f770d43b6450f6b2198830ee885e345b82409d348fc27a93f2a082d6bc1aa2aad60001b6108f5565b6101b67f80dced61b6016162679d304fffbfdfe429f55d151e8a5d5135106b9a8033df2a60001b6108f5565b6101e27fe39fdb13cff11097225969d385f9c90fd1651d8eebb36649c4ae163688066eea60001b6108f5565b60008111610225576040517f08c379a000000000000000000000000000000000000000000000000000000000815260040161021c90610a19565b60405180910390fd5b6102517fd85efd9fbca48e2a5da9e7e9c3f7189295758300cdf2604c768c91d357cea9bc60001b6108f5565b61027d7f7bd0079125daef9ed8a66f3f98aed199b76e0309bbdce4af0e5e19412edcc05660001b6108f5565b6102a97f0346fc910aa441de7f128c52a1bd194c14ec6f552d823e5b90f242bad9ab738760001b6108f5565b60008060003373ffffffffffffffffffffffffffffffffffffffff1673ffffffffffffffffffffffffffffffffffffffff168152602001908152602001600020819055506103197f5a5c82b63f0695bbfb73e7e012f04362adf5668371fa3b04015037f80f75bdee60001b6108f5565b6103457faeb483e715c0dd84aa2411dd26df798b6814643d7592964b39d99e1e51c83f7e60001b6108f5565b60006002826103549190610a68565b90506103827f6e579e59fbea57691660c602bbd8760b282522cd8d80a9dc4cb0da4d4d00158360001b6108f5565b6103ae7f9c9841c9b54e857da5c047ea0ee2d20b4772d6ca6960aba73962e21bea40dd5560001b6108f5565b60003373ffffffffffffffffffffffffffffffffffffffff16826040516103d490610adb565b60006040518083038185875af1925050503d8060008114610411576040519150601f19603f3d011682016040523d82523d6000602084013e610416565b606091505b505090506104467f39f25274729e98a62bf1bbb832780c8872b731a8b9cb427842c8909cd6d71e0560001b6108f5565b6104727f30f8866ed65788c1d49785f995644725d8558051390eb2f1654b8cb0be0ab72f60001b6108f5565b61049e7f4b0463983d4d1d351cfe3dad4a0d388b13fe4c0ac559067c0a7d59372e0c99a660001b6108f5565b806104de576040517f08c379a00000000000000000000000000000000000000000000000000000000081526004016104d590610b62565b60405180910390fd5b61050a7f5e6f199c381f4a729b85d99478d2da3c24ad5582a776bc1882086b6ffe7dea0460001b6108f5565b6105367fbc68f25bcd97df991224a9dd237df9d7df977d3144165383ed89b4ddba10afef60001b6108f5565b6105627f827b00ed70f681cb5269af4f89bb0c5c558e570cdb62ceecfa91160b97993f6460001b6108f5565b3373ffffffffffffffffffffffffffffffffffffffff167f7fcf532c15f0a6db0bd6d0e038bea71d30d808c7d98cb3bf7268a95bf5081b65836040516105a891906109a1565b60405180910390a2505050565b60006105e37fe3a4eb63bd8e5c21eb4cb9b777278f2ede673226b3eeff40b846918b66e2613b60001b6108f5565b61060f7f0ca241bdfcf2b824beb208a0edb6047984bf7ec18be710ae1c7de9d0f62d3adb60001b6108f5565b61063b7fb98f302a5e7f5ea5924bafcc67095db292c671d685a8d58293bfe1fa7718a8de60001b6108f5565b6000808373ffffffffffffffffffffffffffffffffffffffff1673ffffffffffffffffffffffffffffffffffffffff168152602001908152602001600020549050919050565b6106ad7f7cbb3f422148b2849662d255604ce45c448b706d82fe7888b8398e907207d2d760001b6108f5565b6106d97f7c4b9171f8ecfae527f360c437f9ea995f80efca6704a1c4a5aa8d1114fcd50860001b6108f5565b6107057f40c88c4fd92c142e37516382eadaa380c5b7696687ab4b916ff088937584346060001b6108f5565b6107317f0751f3009cd3f773afd10c447264b360eb40052a0d6359cc689dd5630ea3552b60001b6108f5565b60003411610774576040517f08c379a000000000000000000000000000000000000000000000000000000000815260040161076b90610bf4565b60405180910390fd5b6107a07fa108505ebd0c37b66a9068574b1fb75e9ae7d07b89b214fbad197c5b9371c29960001b6108f5565b6107cc7f1293efae3b2ffa088ebe4f88674d65a8684bb6f8bc77220f3f7934c793c4a23060001b6108f5565b6107f87f9301e61ed3a564b26405f8a7c6e49b610c2df29d71cda8aaec5434ea86ae8dc660001b6108f5565b346000803373ffffffffffffffffffffffffffffffffffffffff1673ffffffffffffffffffffffffffffffffffffffff16815260200190815260200160002060008282546108469190610c14565b925050819055506108797f4eb3f01c1b673ded079e7a08a67be6769c01708c2a33a1a58f1bd24e045d90ba60001b6108f5565b6108a57f0a5eab4d93c519f3c9ef0fbbe430c1106a97e6835c39143026e83a7a4e3f75df60001b6108f5565b3373ffffffffffffffffffffffffffffffffffffffff167fe1fffcc4923d04b559f4d29a8bfc6cda04eb5b0d3c460751c2402c5c5cc9109c346040516108eb91906109a1565b60405180910390a2565b50565b600080fd5b600073ffffffffffffffffffffffffffffffffffffffff82169050919050565b6000610928826108fd565b9050919050565b6109388161091d565b811461094357600080fd5b50565b6000813590506109558161092f565b92915050565b600060208284031215610971576109706108f8565b5b600061097f84828501610946565b91505092915050565b6000819050919050565b61099b81610988565b82525050565b60006020820190506109b66000830184610992565b92915050565b600082825260208201905092915050565b7f4e6f206465706f73697420617661696c61626c6520746f207769746864726177600082015250565b6000610a036020836109bc565b9150610a0e826109cd565b602082019050919050565b60006020820190508181036000830152610a32816109f6565b9050919050565b7f4e487b7100000000000000000000000000000000000000000000000000000000600052601160045260246000fd5b6000610a7382610988565b9150610a7e83610988565b9250828202610a8c81610988565b91508282048414831517610aa357610aa2610a39565b5b5092915050565b600081905092915050565b50565b6000610ac5600083610aaa565b9150610ad082610ab5565b600082019050919050565b6000610ae682610ab8565b9150819050919050565b7f4661696c656420746f2073656e642045544820746f207468652077697468647260008201527f6177657200000000000000000000000000000000000000000000000000000000602082015250565b6000610b4c6024836109bc565b9150610b5782610af0565b604082019050919050565b60006020820190508181036000830152610b7b81610b3f565b9050919050565b7f4465706f73697420616d6f756e74206d7573742062652067726561746572207460008201527f68616e207a65726f000000000000000000000000000000000000000000000000602082015250565b6000610bde6028836109bc565b9150610be982610b82565b604082019050919050565b60006020820190508181036000830152610c0d81610bd1565b9050919050565b6000610c1f82610988565b9150610c2a83610988565b9250828201905080821115610c4257610c41610a39565b5b9291505056fea2646970667358221220b3f2d118e3d123147ee2b0348631273fbbeb4b4719d4e70fa8964457625ad99764736f6c63430008120033",
  "linkReferences": {},
  "deployedLinkReferences": {}
}