{
  "_format": "hh-sol-artifact-1",
  "contractName": "DoubleDeposit",
  "sourceName": "contracts/DoubleDeposit.sol",
  "abi": [
    {
      "inputs": [],
      "stateMutability": "nonpayable",
      "type": "constructor"
    },
    {
      "anonymous": false,
      "inputs": [
        {
          "indexed": true,
          "internalType": "address",
          "name": "depositor",
          "type": "address"
        },
        {
          "indexed": false,
          "internalType": "uint256",
          "name": "amount",
          "type": "uint256"
        }
      ],
      "name": "Deposit",
      "type": "event"
    },
    {
      "anonymous": false,
      "inputs": [
        {
          "indexed": true,
          "internalType": "address",
          "name": "withdrawer",
          "type": "address"
        },
        {
          "indexed": false,
          "internalType": "uint256",
          "name": "amount",
          "type": "uint256"
        }
      ],
      "name": "Withdrawal",
      "type": "event"
    },
    {
      "inputs": [],
      "name": "deposit",
      "outputs": [],
      "stateMutability": "payable",
      "type": "function"
    },
    {
      "inputs": [
        {
          "internalType": "address",
          "name": "depositor",
          "type": "address"
        }
      ],
      "name": "getDepositAmount",
      "outputs": [
        {
          "internalType": "uint256",
          "name": "",
          "type": "uint256"
        }
      ],
      "stateMutability": "view",
      "type": "function"
    },
    {
      "inputs": [],
      "name": "withdraw",
      "outputs": [],
      "stateMutability": "nonpayable",
      "type": "function"
    }
  ],
  "bytecode": "0x608060405234801561001057600080fd5b50610368806100206000396000f3fe6080604052600436106100345760003560e01c80633ccfd60b14610039578063b8ba16fd14610050578063d0e30db014610098575b600080fd5b34801561004557600080fd5b5061004e6100a0565b005b34801561005c57600080fd5b5061008661006b3660046102bc565b6001600160a01b031660009081526020819052604090205490565b60405190815260200160405180910390f35b61004e610200565b33600090815260208190526040902054806101025760405162461bcd60e51b815260206004820181905260248201527f4e6f206465706f73697420617661696c61626c6520746f20776974686472617760448201526064015b60405180910390fd5b33600090815260208190526040812081905561011f826002610302565b604051909150600090339083908381818185875af1925050503d8060008114610164576040519150601f19603f3d011682016040523d82523d6000602084013e610169565b606091505b50509050806101c65760405162461bcd60e51b8152602060048201526024808201527f4661696c656420746f2073656e642045544820746f207468652077697468647260448201526330bbb2b960e11b60648201526084016100f9565b60405182815233907f7fcf532c15f0a6db0bd6d0e038bea71d30d808c7d98cb3bf7268a95bf5081b659060200160405180910390a2505050565b600034116102615760405162461bcd60e51b815260206004820152602860248201527f4465706f73697420616d6f756e74206d7573742062652067726561746572207460448201526768616e207a65726f60c01b60648201526084016100f9565b336000908152602081905260408120805434929061028090849061031f565b909155505060405134815233907fe1fffcc4923d04b559f4d29a8bfc6cda04eb5b0d3c460751c2402c5c5cc9109c9060200160405180910390a2565b6000602082840312156102ce57600080fd5b81356001600160a01b03811681146102e557600080fd5b9392505050565b634e487b7160e01b600052601160045260246000fd5b8082028115828204841417610319576103196102ec565b92915050565b80820180821115610319576103196102ec56fea2646970667358221220a572867289fe95f1bc9be8d4d8d637861cd1b3404e820c5a98ba107df1d66bba64736f6c63430008120033",
  "linkReferences": {},
  "deployedLinkReferences": {}
}